:100000000C94CD010C9483030C94EA010C94EA0146
:100010000C94EA010C94EA010C94EA010C94EA01B4
:100020000C94EA010C94EA010C94EA010C94EA01A4
:100030000C94EA010C94EA010C94EA010C94EA0194
:100040000C94EA010C94EA010C94EA010C94EA0184
:100050000C94EA01040309043C037700770077005D
:100060002E006800610072006200610075006D0082
:100070002E006F00720067002F00740069006C0092
:100080006C002F0067006C00630064003200750094
:1000900073006200120347004C004300440032002A
:1000A0005500530042001201100100000008401CDE
:1000B0002505010101020001090222000101008061
:1000C00032090400000103000000092101010001C0
:1000D0002269000705810308000A0600FF0901A143
:1000E00001150026FF007508850195250900B2025B
:1000F00001850295010900B20201850395010900FD
:10010000B20201850495010900B202018508950734
:100110000900B202018509950B0900B20201850AA6
:1001200095130900B20201850B95230900B2020163
:10013000850C95430900B20201850D95830900B233
:100140000201C011474472697665723A20204B5310
:1001500030313038205625642E2530327820002A60
:100160002A2A20474C434432555342202A2A2A0047
:10017000014B533031303800000000000000000017
:10018000000000000000000000000000000000006F
:100190000080004000120B3E414141414242424238
:1001A0003C0006FFFFFFFFFFFF0000000000000013
:1001B0005F00000007000700147F147F14242A7FCB
:1001C0002A122313086462364955225000050300A1
:1001D00000001C2241000041221C00082A1C2A08A1
:1001E00008083E0808005030000008080808080009
:1001F0006060000020100804023E5149453E004264
:100200007F400042615149462141454B311814124B
:100210007F1027454545393C4A4949300171090558
:10022000033649494936064949291E003636000039
:10023000005636000000081422411414141414410E
:10024000221408000201510906324979413E7E110B
:1002500011117E7F494949363E414141227F41414A
:10026000221C7F494949417F090901013E41415111
:10027000327F0808087F00417F41002040413F0154
:100280007F081422417F404040407F0204027F7F6C
:100290000408107F3E4141413E7F090909063E4165
:1002A00051215E7F09192946464949493101017F9B
:1002B00001013F4040403F1F2040201F7F20182069
:1002C0007F631408146303047804036151494543B0
:1002D00000007F4141020408102041417F000004DA
:1002E000020102044040404040000102040020544A
:1002F0005454787F48444438384444442038444473
:10030000487F3854545418087E0901020814545484
:100310003C7F0804047800447D40002040443D00B8
:10032000007F10284400417F40007C041804787C42
:100330000804047838444444387C1414140808141D
:1003400014187C7C080404084854545420043F4486
:1003500040203C4040207C1C2040201C3C40304041
:100360003C44281028440C5050503C4464544C44A5
:10037000000836410000007F0000004136080008F8
:10038000082A1C08081C2A08083031323334353654
:100390003738394142434445460011241FBECFE55A
:1003A000D4E0DEBFCDBF10E0A0E6B0E0E0EAF2E2CC
:1003B00002C005900D92AC36B107D9F711E0ACE65A
:1003C000B0E001C01D92AF39B107E1F70E940F06FE
:1003D0000C944E110C94000085B7836085BF8BB7D9
:1003E00080648BBF8BE480936A018AE58093690106
:1003F00008951F93DC01162F8091690184FF18C0B6
:1004000080916A0198E8892780936A01912FEBE631
:10041000F1E08D91819391501916DCF38BE691E018
:10042000612F0E947F031C5F109369011F91089543
:100430008AE580936901EACF1F93CF93DF936091A0
:100440007A01635067FD13C080917701CCE0D0E062
:10045000C81BD109C258DE4F809176018D3209F454
:1004600063C080916C0087FD85C010927A018091F5
:10047000600084FF4BC0609161006F3F09F446C08B
:10048000693070F168506093610080915E0198E876
:10049000892780935E0168E080916C0087FD8EC0A3
:1004A000209178013091790186FF6FC0AFE5B1E00E
:1004B00080E090E0F901E80FF91FE491ED930196D7
:1004C0006817C1F76150862F90E06F5F0196820F29
:1004D000931F9093790180937801162F1C5F0BC0B6
:1004E0001092610080915E0198E8892780935E01F7
:1004F000662391F614E08FE591E00E947F031C30A3
:1005000019F08FEF809361001093600094E180B345
:10051000847431F49150D9F710927B0110927501D7
:10052000DF91CF911F910895683009F09ECF83EC41
:1005300080935E018AE58093600010926C00888150
:10054000807661F59A81109267018981882309F08C
:1005500046C01092680122E087E691E0909379010D
:10056000809378018F81882319F49E81921718F166
:10057000922F21C0CE010E9473068F3F61F1882324
:1005800009F473CF1092610070CF962FD901EFE577
:10059000F1E08D9181939150E1F794CFCE010E94CB
:1005A000DC06282F8F3FF1F6888187FD31C09FEF51
:1005B00080E880936C009093610057CF8FE591E0C5
:1005C0000E94B504682F893008F479C08FEF8093BA
:1005D00061001EE199CF8EE18093600046CF8530A7
:1005E00089F08630B9F0883031F1893041F18A30B4
:1005F00061F18B3019F48BE480936A0120E087E687
:1006000091E0ACCF90937B0120E087E691E0A6CF0C
:100610009E81CECF8B81813071F1823021F1833088
:10062000C1F0813281F1823209F441C020E080E4DE
:1006300080936C0097CF21E08DE791E08FCF90936E
:100640007D0120E087E691E089CF21E087E691E017
:1006500085CF992301F584E590E09093790180930B
:10066000780124E0E4CF88EB90E0909379018093C7
:10067000780122E2DCCF86EA90E0909379018093C2
:10068000780122E1D4CF8AEC90E0909379018093B5
:10069000780129E0CCCF9130A9F0923039F684E985
:1006A00090E0909379018093780122E1C0CF8AEDA8
:1006B00090E0909379018093780129E6B8CF182FC4
:1006C0001C5F19CF88E590E09093790180937801C1
:1006D0002CE3ADCFA82FB92F80E090E041E050EAA5
:1006E000609530E009C02D9182279795879510F08D
:1006F00084279527305EC8F36F5FA8F30895EADF7B
:100700008D939D930895CF93CFB7CF93DF93C395E8
:10071000869BE9F7869B0BC0869B09C0869B07C01A
:10072000869B05C0869B03C0869B01C08BC06F93D0
:10073000C0917701DD27C258DE4F2F9365E5869B78
:1007400003C02F916F91E6CF0F931F934F9320E03B
:1007500040E15F9300B3047406FB27F93F9350E038
:100760003BE039C0147440642F77012F5F5F1EC0D7
:10077000406810B314742F7752501FC0406400B308
:100780002F770474D1F15F5F00C023C0406210B3C3
:100790002F77147491F15F5F00C025C00474102797
:1007A000515012F45D5F0000115027952C3F10B39B
:1007B000C8F614740127015027952C3FC8F642272C
:1007C000499300B3047410274F73115027952C3FA1
:1007D000A8F64695469510B3147479F00127015098
:1007E00027952C3F98F66B5A60F3315000B3B0F662
:1007F00000C010E41ABF002719C03B503195C31B3D
:10080000D04010E41ABF0881033C09F10B34F9F021
:10081000209175011981110F1213EDCF4A81441FE8
:10082000093651F10D3211F0013E29F700937C0198
:100830003F915F914F911F910F912F916F91CAB787
:10084000C6FD65CFDF91CF91CFBFCF911895209195
:100850007C01222369F310917A01112391F5343040
:1008600092F130937A0120937601109177013BE069
:10087000311B3093770127C000917A0101300CF5CC
:100880000AE54F7049F43091600034FD1DC00093BB
:100890006000CEE5D1E01CC03091690134FD14C088
:1008A00000936901CAE6D1E013C0052710E000C03B
:1008B000000002BB1AC0052710E0221F1DC010E077
:1008C00021C04AE502C032ED432FC4E1D0E032E05E
:1008D00011B31464969A02B311BB54E420E865E3A3
:1008E00020FF052702BB279517951C3FF0F666955C
:1008F000B8F7B1F720FF052702BB279517951C3FD6
:10090000D0F62795179517FF052700001C3F02BB5F
:10091000B0F629913A9519F70B7B10917B01110FD5
:10092000C651D04002BB11F01093750110E41ABFFC
:10093000006411B31B7B402F4B7B54E05A95F1F7B9
:1009400002BB11BB42BB74CF8091980196B39095C6
:100950009F7090939801089596B390959F708091A1
:100960009801892B809398010895862F089580938C
:10097000930008950F931F93CF93DF93809193007B
:10098000882309F482C06091AC007091AD0077FDBE
:1009900022C084EA99E04091AE002091B00000911D
:1009A000B2000E947B0884EA99E06091B000409117
:1009B000B2002091B4000091B6000E947B0884EA46
:1009C00099E06091B4004091B6002091AC00009194
:1009D000AE000E947B088CEA90E068EB70E044E295
:1009E00050E00E94BA1000ED10E0E801EC974C8551
:1009F0005D8588819981489F9001499F300D589F5E
:100A0000300D1124F80180819181280F391F203881
:100A1000310508F04FC0F801318320834E855F8592
:100A20008A819B81489F9001499F300D589F300DCE
:100A30001124F80182819381280F391F2034310558
:100A400048F5F801338322830C5F1F4F2496F0E0B2
:100A5000C03ADF0761F684EA99E06091D0004AA9C4
:100A60002CA90EA90E947B0884EA99E06CA94EA9E2
:100A700028AD0AAD0E947B0884EA99E068AD4AADD2
:100A80002091D0000AA90E947B08DF91CF911F918D
:100A90000F91089588279927841B950B9F878E8730
:100AA0000E94A11063E070E00E94EC0F01969B830E
:100AB0008A83CACF88279927841B950B9D878C87AB
:100AC0000E94A11063E070E00E94EC0F01969983F0
:100AD0008883A4CF0F931F93CF93DF9380E160E0CF
:100AE0000E94330800D00F9211E0ADB7BEB7119647
:100AF0001C9311978FE591E013969C938E93129718
:100B00000E94860C0F900F900F9081E061E00E9490
:100B10003308EDB7FEB737970FB6F894FEBF0FBE98
:100B2000EDBF3196ADB7BEB711961C9385E491E049
:100B30009283818381E090E094838383968385838D
:100B40000E94860C8FEF9FEF9093AD008093AC00D6
:100B50009093B9008093B8009093C5008093C4002F
:100B60009093D1008093D00000ED10E0E801EC9765
:100B7000EDB7FEB737960FB6F894FEBF0FBEEDBFC8
:100B80000E94A11060E870E00E94EC0FD8018C93E5
:100B900011969C93888F998F0E94A11060E470E059
:100BA0000E94EC0FF801828393838A8F9B8F0E94AF
:100BB000A11063E070E00E94EC0F01969983888396
:100BC0000E94A11063E070E00E94EC0F01969B83ED
:100BD0008A830E94A11080FD1FC08FEF9FEF9D8729
:100BE0008C870E94A11080FD14C08FEF9FEF9F871C
:100BF0008E870C5F1F4F2496F0E0C03ADF0709F0A4
:100C0000BFCF81E080939300DF91CF911F910F912F
:100C1000089581E090E0EBCF81E090E0E0CFCF93CA
:100C2000DF932EE088E190E00FB6F894A89581BD9F
:100C30000FBE21BD82B38B7B82BB81B3846481BB39
:100C400080E49CE90197F1F781B38B7B81BB8C9A9F
:100C5000949887B3807F87BB88B38F6088BB85E01B
:100C600083BF8D9A8FB589688FBD8EB581608EBD2B
:100C700080E28ABD0E94EC0180E090E00E94CC10EE
:100C80008151974479F0C3E4D1E0FE01649180E0A2
:100C900090E00E94D2102196FE01649181E090E0E4
:100CA0000E94D2100E94610880E799E00E94DF0A4A
:100CB0000E946A0578940E94BA04A8950E941C02BA
:100CC00086B380958F7090919801982B909398019E
:100CD0008091000090910100892B69F386B38F7099
:100CE0008A3049F7FFCF0F931F93CF93DF93EC0127
:100CF000062F80919401843099F18830A9F08230D8
:100D000031F0802FDF91CF911F910F91089589814C
:100D1000882381F10E94610810929300802FDF9157
:100D2000CF911F910F910895809195019091960117
:100D30008F5F9F4F49F180919701102F8017C0F06E
:100D4000811B809397011123E1F289910E94ED07A5
:100D50001150D9F7802FDF91CF911F910F910895F6
:100D600089818ABD802FDF91CF911F910F910895C6
:100D7000182FE6CF0E9461080E946A05802FDF913C
:100D8000CF911F910F9108957A8160E08981680F5A
:100D9000711D70939601609395018B8180939701EB
:100DA00024960450862F8F77660F672F661F770B68
:100DB00071950E943308BFCFFC012DE630E03093DF
:100DC00079012093780180818076803211F080E073
:100DD00008958181813081F08930C9F78381833022
:100DE000B1F78281843021F0853020F5823079F7A7
:100DF000809394018FEF08958381833041F782813E
:100E0000813079F0833019F780936D0090919801CB
:100E100086B380958F708093980190936E0082E0E6
:100E20000895C90160E771E046E250E00E94B11008
:100E300086E208958850863050F688E080939401C9
:100E40008FEF9FEF90939601809395018FEF089518
:100E5000DF98DE98DD98DC98DB98D898D79AD69AF8
:100E6000D59AD49AD39AD09A15BA8FEF84BB0895A5
:100E7000882319F0DC98DB9A0895DC9ADB980895B2
:100E80000E94380715BA14BADE9ADF98DD9A00007E
:100E9000000000000000000000000000000083B31C
:100EA0008079E9F7DD98DE988FEF84BB08951F9372
:100EB000162F0E944007DF98DE98DD9A8FEF84BBE3
:100EC00015BB000000000000000000000000000052
:100ED0000000DD981F9108950E944007DF9814BA22
:100EE000DE9ADD9A00000000000000000000000013
:100EF0000000000083B3DD98DE989FEF94BB089557
:100F0000882311F4D89A0895D89808958093990168
:100F100080E060E40E94570710929B0181E060E44A
:100F20000E94570710929D0180919901682F6F735D
:100F3000606482958695869583700E945707089510
:100F40001F93182F80939A01186B80E0612F0E94E5
:100F5000570781E0612F0E9457071F910895FF9264
:100F60000F931F93182F00919901029506950695EE
:100F70000370802F0E94400715BA14BA8BB3806E9D
:100F80008BBB00000000000000000000000000001B
:100F90000000F3B28BB38F718BBB112381F4E02F70
:100FA000F0E0EE0FFF1FE556FE4F80818F5F8083DC
:100FB000809199018F5F8093990187FD05C08F2DE6
:100FC0001F910F91FF90089580919A018F5F0E9469
:100FD000A00780E00E948607F2CF0F931F93182F7F
:100FE000009199010295069506950370802F0E9445
:100FF00040078FEF84BB15BBDF9ADE98DD9A0000B7
:101000000000000000000000000000000000DD986B
:10101000E02FF0E0EE0FFF1FE556FE4F80818F5F5F
:101020008083809199018F5F8093990187FD03C030
:101030001F910F91089580919A018F5F0E94A007E0
:1010400080E00E9486071F910F9108951F93182F2B
:10105000106C80E0612F0E94570781E0612F0E9491
:1010600057071F9108951F93182F862F0E94A007DE
:10107000812F0E9486071F9108950F931F9300E010
:1010800080E0602F0E94330810E080E00E94ED07AE
:101090001F5F1038D1F70F5F083091F71F910F9144
:1010A000089580E00E94260880E060E00E943308F6
:1010B00010929C0110929B0110929E0110929D0132
:1010C00008950E942807D89A80E06FE30E9457078E
:1010D00081E06FE30E9457070E943D080E9451087B
:1010E0000895982F86E0689F802D1124692F0E9413
:1010F0003308089508952F923F924F925F926F9216
:101100007F928F929F92AF92BF92CF92DF92EF9297
:10111000FF920F931F93DF93CF9300D00F92CDB721
:10112000DEB75C01E62ED42EC22E0983822F90E01A
:10113000861B9109402F50E04D19510918161906C8
:101140000CF09AC0E1E04E2E512C141615060CF04E
:1011500083C071E0672E712C9C0197FD83C0CA018A
:1011600057FD86C0281739070CF447C01901220C17
:10117000331CCE1441F14C01880C991CC401821B14
:10118000930B9B838A83042DF42CFE0C1F2D07C028
:101190002A813B81280D391D3B832A83F00E8E2D39
:1011A0006D2DF5010995EA81FB81F7FD05C0D60C8F
:1011B000E219F309FB83EA83EF2C100F812F801BC8
:1011C000C81631F7EC2C8E2D6D2DF50109950F9079
:1011D0000F900F90CF91DF911F910F91FF90EF90A3
:1011E000DF90CF90BF90AF909F908F907F906F9047
:1011F0005F904F903F902F9008951C01220C331C5C
:1012000049814D1501F34901880C991CF401E81B33
:10121000F90BFB83EA83062DF62CFD0C1F2D07C06E
:101220008A819B81880D991D9B838A83F00E8E2D68
:101230006D2DF50109952A813B8137FD05C0E40C30
:10124000221933093B832A83DF2C100F812F801B47
:101250003981381729F7B7CF66246A94762C9C0118
:1012600097FF7DCF309521953F4FCA0157FF7ACF29
:10127000909581959F4F76CF44244A94542C65CF06
:101280000F931F93CF93DF93882329F120E090E001
:10129000E92FF0E0EA56FE4FE4919E0F2F5F2817EA
:1012A000B8F3292F30E0C9018A569E4FFC01049102
:1012B000002361F0E901C956DE4F10E0FE01849180
:1012C0000E94ED071F5F21961017C0F3DF91CF91A9
:1012D0001F910F91089520E030E086E991E0E6CF7C
:1012E0000F931F93CF93DF9390E09C01220F331F46
:1012F000220F331F280F391FE901C75FDE4F890115
:10130000025F1E4FFE0184910E94ED072196C017D7
:10131000D107C1F780E00E94ED0780E00E94260817
:10132000DF91CF911F910F910895CF93DF93EC013F
:101330008881882331F00E94700921968881882352
:10134000D1F7DF91CF910895EF92FF920F931F9302
:10135000E82E162F062F069506950695602F0E94FB
:10136000330881E00E94AF0780E00E94AF07F82EAB
:101370008E2D602F0E943308177081E090E002C02C
:10138000880F991F1A95E2F78F250E94ED0780E0DC
:101390000E9426081F910F91FF90EF900895EF9201
:1013A000FF920F931F93F82E162F062F0695069582
:1013B0000695602F0E94330881E00E94AF0780E00D
:1013C0000E94AF07E82E8F2D602F0E943308177000
:1013D00081E090E002C0880F991F1A95E2F780958E
:1013E0008E210E94ED0780E00E9426081F910F9138
:1013F000FF90EF900895EF92FF920F931F93E82EC6
:10140000162F062F069506950695602F0E94330825
:1014100081E00E94AF0780E00E94AF07F82E8E2D7A
:10142000602F0E943308177081E090E002C0880F9F
:10143000991F1A95E2F78F290E94ED0780E00E941C
:1014400026081F910F91FF90EF9008954F925F92A1
:101450006F927F928F929F92AF92BF92CF92DF92C4
:10146000EF92FF920F931F93CF93DF93582EC62EC8
:10147000462E481A842E9924C401880F991FCC2720
:10148000DD27C81BD90B2396AA24BB246624772406
:1014900017C02A96C50188199909880F991F880FC6
:1014A000991FC80FD91F0894810891080894A11C9E
:1014B000B11C84E090E0680E791E8A149B04A4F1AC
:1014C000DA2CD50C082D0C0D8D2D602F0E94FB09F8
:1014D000FC2CF8188D2D6F2D0E94FB09152D1A1963
:1014E000812F602F0E94FB09812F6F2D0E94FB0925
:1014F0000419DA2CDC0C802F6D2D0E94FB091C2DA9
:101500001A19802F612F0E94FB09F4188F2D6D2D61
:101510000E94FB098F2D612F0E94FB09D7FFB9CFD5
:101520002696C60DD71DC2CFDF91CF911F910F9187
:10153000FF90EF90DF90CF90BF90AF909F908F90F3
:101540007F906F905F904F900895BF92CF92DF92FF
:10155000EF92FF920F931F93E82EF62ED42EB22E09
:10156000442391F0EA94CE2CC20EE39400E0102FB5
:101570001F0D8E2D612F0E94FB098C2D612F0E9463
:10158000FB090F5F0D1598F3BB2089F0FA94DF0C6F
:10159000F39400E0102F1E0D812F6F2D0E94FB0988
:1015A000812F6D2D0E94FB090F5F0B1598F31F9182
:1015B0000F91FF90EF90DF90CF90BF9008959093A0
:1015C0005D0180935C0108951F93182F8A3041F0CC
:1015D000E0915C01F0915D01812F09951F910895C3
:1015E000E0915C01F0915D018DE00995E0915C0175
:1015F000F0915D01812F09951F910895CF93DF939D
:10160000EC01009721F406C021960E94E40A88812B
:101610008823D1F7DF91CF910895EF92FF920F9336
:101620001F93CF93DF938C017A01009729F120E07B
:1016300030E02617370738F4F80181918F012F5FCA
:101640003F4F8823B1F7E114F104B1F0C0E0D0E0DE
:1016500008C00F5F1F4F0E94E40A2196CE15DF05D8
:1016600058F4F80180818823A1F780E20E94E40AFF
:101670002196CE15DF05A8F3DF91CF911F910F9131
:10168000FF90EF900895CF93DF93FC01009761F0F6
:101690008491882349F0EF0121960E94E40AFE011B
:1016A000219684918823C9F7DF91CF9108958AE02C
:1016B0000E94E40A0895E82FF0E0EF70F070E75719
:1016C000FC4FE4918E2F0E94E40A08951F93182F77
:1016D00082958F700E945B0B812F0E945B0B1F9184
:1016E00008951F93182F892F0E94660B812F0E9447
:1016F000660B1F910895EF92FF920F931F937B014A
:101700008C01C801AA27BB270E94710BC7010E9448
:10171000710B1F910F91FF90EF9008952F923F92C0
:101720004F925F926F927F928F929F92AF92BF92F1
:10173000CF92DF92EF92FF920F931F93DF93CF939D
:10174000CDB7DEB7A4970FB6F894DEBF0FBECDBFFE
:101750006AA34BA32CA317012801442311F017FD02
:1017600093C082017101AAA02A2D215090E03BA1D3
:10177000311191E0291B29A318A2682E772467FC58
:101780007094872C972CC801B701A40193010E9483
:10179000FF0FFB01EF70F070E757FC4F64916F8F04
:1017A000C801B701A40193010E94FF0FC901DA012A
:1017B0007C018D019EE1C92ED12CCC0EDD1EB9A07D
:1017C0001CC0C801B701A40193010E94FF0FFB01D7
:1017D000EF70F070E757FC4F6491F6016083C80129
:1017E000B701A40193010E94FF0FC901DA017C0136
:1017F0008D01BA940894C108D108BB2049F0E114C6
:10180000F10401051105E9F62CA1F6012083F1CFC1
:10181000CE014F968C0139A1031B11098BA188239E
:1018200059F057FC2CC02114310441045104A1F19A
:101830008BE2F80182938F01FAA1FF2339F0F801BE
:1018400081918F010E94E40AAA94C9F7A4960FB669
:10185000F894DEBF0FBECDBFCF91DF911F910F91E6
:10186000FF90EF90DF90CF90BF90AF909F908F90C0
:101870007F906F905F904F903F902F9008958DE2F2
:10188000F80182938F01D8CFEE24FF248701E2185C
:10189000F3080409150967CF80E2F80182938F01EC
:1018A000CBCF80538A3010F080E008958FEF0895F9
:1018B000A82FFB0120E030E0AA2331F0849180536F
:1018C0008A3030F0C9010895808180538A30D0F782
:1018D000AA23A1F08491482F50E040535040C90101
:1018E000880F991F880F991F880F991F220F331F88
:1018F000280F391F240F351F3196DECF8081482FE6
:10190000552747FD509540535040E9CF2F923F92C5
:101910004F925F926F927F928F929F92AF92BF92FF
:10192000CF92DF92EF92FF920F931F93DF93CF93AB
:1019300000D0CDB7DEB73F887AE1472E512C4C0E50
:101940005D1E888D998DFC016F013320A1F0F60199
:1019500084918823A1F48823A9F0332009F4A1C03D
:10196000F6018491853229F10E94E40A0894C11C91
:10197000D11C332061F7D6018C91882361F381E07B
:10198000882359F780E090E00F900F90CF91DF917E
:101990001F910F91FF90EF90DF90CF90BF90AF908D
:1019A0009F908F907F906F905F904F903F902F907F
:1019B00008950894C11CD11C332009F41BC1F60101
:1019C00084918D3209F41BC11A821982332009F4E3
:1019D00020C1F6018491803309F422C28E3209F4C9
:1019E0001FC260E2262EF60184918A3209F41EC1DC
:1019F000332011F4F601808180538A3008F086C1CB
:101A0000832DB6010E94580C3C01332009F457C0C5
:101A1000F601849180538A3008F44BC07201332060
:101A200009F450C0F60184918E3209F450C0870148
:101A30002EEF822E2FE7922E332009F469C0F60193
:101A40008491833209F469C060E070E0332009F4C6
:101A50006CC0F60184918C3609F46CC040E050E013
:101A6000332009F46FC0F6018491282F30E02F361F
:101A7000310509F46FC0203731050CF0ECC0233676
:101A8000310509F4C5C12436310509F454C12532A4
:101A9000310511F028016ACF85E20E94E40A28018D
:101AA00065CFD6018C91853209F483CFF601808110
:101AB0005BCF0894C11CD11C332009F0A9CFD601FB
:101AC0008C91A8CFD6018C918E3209F0B0CF0894BA
:101AD000C11CD11C332009F427C1F60184918A323C
:101AE00009F418C180538A3008F0A1CF832DB601C4
:101AF0000E94580C4C01332009F4AAC0F6018491CD
:101B000080538A3008F49EC08701332009F097CFB4
:101B1000D6018C91833209F097CF0894C11CD11C57
:101B200061E070E0332009F094CFD6018C918C36BF
:101B300009F094CF0894C11CD11C41E050E033203F
:101B400009F091CFD6018C91282F30E02F36310546
:101B500009F091CF452B09F081C152E0452E512C5F
:101B6000400E511EF801808191817C0100E010E05F
:101B70002537310509F480C12F36310509F4D9C163
:101B80002837310509F4F8C19CEDA92E90E0B92E53
:101B90001CEDE12E10E0F12EE60CF71CEA18FB0814
:101BA000A981BA81AB2B09F49CC147018501015081
:101BB0001040B0E00C3D1B0750F0F80180810E94FE
:101BC000E40A01501040F0E00C3D1F07B0F7898196
:101BD0009A81892B09F4CACE181419040CF0C6CEC8
:101BE000840180E20E94E40A0150104010161106A0
:101BF000C4F3BCCED6018C918D3209F0E5CE0894A9
:101C0000C11CD11CE1E0F0E0FA83E983332009F044
:101C1000E0CED6018C91803309F470C08E3209F485
:101C20006DC040E2242E8A3209F0E4CE32E0E32E89
:101C3000F12CE40CF51CD2016D907C900894C11C31
:101C4000D11CEDCE0894C11CD11C332009F056CF15
:101C5000D6018C9155CF2537310509F47BCF283734
:101C6000310509F477CF2337310509F013CFA2E00E
:101C70004A2E512C400E511EF801E080F180E114F3
:101C8000F10409F474C1F70101900020E9F73197DC
:101C9000EE19FF095301AE1ABF0A89819A81892B77
:101CA00009F40CC13501D7018C918823A1F01814D7
:101CB00019048CF400E010E005C00F5F1F4F0815F9
:101CC00019054CF40E94E40A0894E11CF11CF70188
:101CD0008081882391F789819A81892B09F446CEE6
:101CE000161417040CF042CE830180E20E94E40A2D
:101CF0000150104010161106C4F338CE0894C11CD0
:101D0000D11CF6018081E0E32E2E8DCF7201662476
:101D1000772485CE87010E5F1F4FF7018080918069
:101D20000894C11CD11C88CED6018C918A3291F3C3
:101D3000D6018C91D7CE452B09F078C082E0482E91
:101D4000512C400E511ED8018D919C917C01002791
:101D5000F7FC0095102F17FD75C088249924ACED71
:101D6000AA2EA0E0BA2EC801B7012AE030E040E078
:101D700050E00E942110605DF50161935F01C80190
:101D8000B7012AE030E040E050E00E942110C90194
:101D9000DA017C018D011E141F04100611061CF3CC
:101DA000892821F0D501EDE2ED935D01FCEDEF2EE8
:101DB000F0E0FF2EE60CF71CEA18FB0889819A81F7
:101DC000892B09F4A2C0470185010150104090E021
:101DD0000C3D190750F0D8018C910E94E40A015083
:101DE0001040B0E00C3D1B07B0F7E981FA81EF2B02
:101DF00009F4BCCD181419040CF0B8CD840180E2AC
:101E00000E94E40A0150104010161106C4F3AECD32
:101E1000B2E04B2E512C400E511ED8018C91A4CD16
:101E20000894C11CD11C50E3252EDDCD94E0492E31
:101E3000512C400E511EF801E080F1800281138187
:101E400017FF8BCF10950095F094E094E11CF11CE6
:101E5000011D111DB1E08B2E912C81CFE4E04E2E9F
:101E6000512C400E511ED801ED90FD900D911C910A
:101E70002537310509F080CE4CEDA42E40E0B42E7C
:101E8000C801B7012AE030E040E050E00E94FF0FB7
:101E9000605DD5016D935D01C801B7012AE030E0B6
:101EA00040E050E00E94FF0FC901DA017C018D0182
:101EB000E114F1040105110519F76ACE85010150FD
:101EC000104038011A141B041CF0EDCE01501040D4
:101ED000822D0E94E40A10161106C4F36A187B08CA
:101EE000E2CE47010894810891081E141F040CF0EB
:101EF0005DCE8701822D0E94E40A01501040101629
:101F00001106C4F38E189F0851CE4701089481082A
:101F100091081E141F040CF057CF8701822D0E94D8
:101F2000E40A0150104010161106C4F38E189F08E1
:101F30004BCF3CEDA32E30E0B32E8E2D8770805D0D
:101F4000F50181935F0123E016950795F794E794D7
:101F50002A95D1F7E114F1040105110571F7672BFA
:101F600009F416CEDF01E0E3ED935D0111CEF2E658
:101F7000EF2EF0E0FF2E87CE2DED30E0F901319706
:101F800012C0805D8083590184E016950795F7940F
:101F9000E7948A95D1F72F5F3F4F3196E114F10412
:101FA0000105110551F0C7018F7090708A309105BD
:101FB00044F3895A80835901E7CF672B09F4E8CDB0
:101FC000F50188E7819380E3D50111968C935F0139
:101FD0000894A11CB11CDCCD97FB092E07260AD062
:101FE00077FD04D049D006D000201AF47095619591
:101FF0007F4F0895F6F7909581959F4F0895A1E240
:102000001A2EAA1BBB1BFD010DC0AA1FBB1FEE1F72
:10201000FF1FA217B307E407F50720F0A21BB30BBD
:10202000E40BF50B661F771F881F991F1A9469F739
:1020300060957095809590959B01AC01BD01CF0195
:10204000089597FB092E05260ED057FD04D0D7DF43
:102050000AD0001C38F450954095309521953F4F9B
:102060004F4F5F4F0895F6F7909580957095619565
:102070007F4F8F4F9F4F0895AA1BBB1B51E107C095
:10208000AA1FBB1FA617B70710F0A61BB70B881F08
:10209000991F5A95A9F780959095BC01CD01089597
:1020A000A0E0B0E0E6E5F0E10C941F11EC01A8809F
:1020B000B980CA80DB80A114B104C104D10441F409
:1020C00084E2A82E89EDB82E8BE5C82E87E0D82EA5
:1020D000C601B5012DE133EF41E050E00E9421102F
:1020E00027EA31E440E050E00E94F8107B018C01C7
:1020F000C601B5012DE133EF41E050E00E9421100F
:10210000CA01B9012CEE34EF4FEF5FEF0E94F810D7
:102110006E0D7F1D801F911F97FF04C0615070409E
:1021200080409048688379838A839B839B013F77B3
:10213000C901CDB7DEB7EAE00C943B110E94501004
:10214000089588E690E00E9450100895A0E0B0E065
:102150008093680090936900A0936A00B0936B002D
:102160000895FB01DC0102C005900D9241505040E2
:10217000D8F708956817790768F4FB01DC01E40FCC
:10218000F51FA40FB51F02C002900E92415050409F
:10219000D8F708950C94DF10A8E1B0E042E050E0D9
:1021A0000C94EA10262FE199FECF9FBB8EBB2DBB6E
:1021B0000FB6F894E29AE19A0FBE01960895FB01DA
:1021C000DC0102C001900D9241505040D8F70895B3
:1021D000DC01CB01FC01E199FECF06C0FFBBEEBBE9
:1021E000E09A31960DB20D9241505040B8F70895E3
:1021F000629FD001739FF001829FE00DF11D649FEB
:10220000E00DF11D929FF00D839FF00D749FF00D76
:10221000659FF00D9927729FB00DE11DF91F639F17
:10222000B00DE11DF91FBD01CF01112408952F92BA
:102230003F924F925F926F927F928F929F92AF9256
:10224000BF92CF92DF92EF92FF920F931F93CF93A3
:10225000DF93CDB7DEB7CA1BDB0B0FB6F894DEBF3A
:102260000FBECDBF09942A88398848885F846E8460
:102270007D848C849B84AA84B984C884DF80EE80AA
:10228000FD800C811B81AA81B981CE0FD11D0FB6B3
:10229000F894DEBF0FBECDBFED010895F894FFCFD7
:0C22A0005AFF286E696C29000100000044
:00000001FF
